{
  "contractName": "YieldFrams",
  "abi": [
    {
      "inputs": [
        {
          "internalType": "contract UbeswapClone",
          "name": "_ubeswapClone",
          "type": "address"
        },
        {
          "internalType": "contract CeloDollar",
          "name": "_cUSDToken",
          "type": "address"
        }
      ],
      "payable": false,
      "stateMutability": "nonpayable",
      "type": "constructor"
    },
    {
      "constant": true,
      "inputs": [],
      "name": "cUSDToken",
      "outputs": [
        {
          "internalType": "contract CeloDollar",
          "name": "",
          "type": "address"
        }
      ],
      "payable": false,
      "stateMutability": "view",
      "type": "function"
    },
    {
      "constant": true,
      "inputs": [
        {
          "internalType": "address",
          "name": "",
          "type": "address"
        }
      ],
      "name": "hasStaked",
      "outputs": [
        {
          "internalType": "bool",
          "name": "",
          "type": "bool"
        }
      ],
      "payable": false,
      "stateMutability": "view",
      "type": "function"
    },
    {
      "constant": true,
      "inputs": [
        {
          "internalType": "address",
          "name": "",
          "type": "address"
        }
      ],
      "name": "isStaking",
      "outputs": [
        {
          "internalType": "bool",
          "name": "",
          "type": "bool"
        }
      ],
      "payable": false,
      "stateMutability": "view",
      "type": "function"
    },
    {
      "constant": true,
      "inputs": [],
      "name": "name",
      "outputs": [
        {
          "internalType": "string",
          "name": "",
          "type": "string"
        }
      ],
      "payable": false,
      "stateMutability": "view",
      "type": "function"
    },
    {
      "constant": true,
      "inputs": [],
      "name": "owner",
      "outputs": [
        {
          "internalType": "address",
          "name": "",
          "type": "address"
        }
      ],
      "payable": false,
      "stateMutability": "view",
      "type": "function"
    },
    {
      "constant": true,
      "inputs": [
        {
          "internalType": "uint256",
          "name": "",
          "type": "uint256"
        }
      ],
      "name": "stakers",
      "outputs": [
        {
          "internalType": "address",
          "name": "",
          "type": "address"
        }
      ],
      "payable": false,
      "stateMutability": "view",
      "type": "function"
    },
    {
      "constant": true,
      "inputs": [
        {
          "internalType": "address",
          "name": "",
          "type": "address"
        }
      ],
      "name": "stakingBalance",
      "outputs": [
        {
          "internalType": "uint256",
          "name": "",
          "type": "uint256"
        }
      ],
      "payable": false,
      "stateMutability": "view",
      "type": "function"
    },
    {
      "constant": true,
      "inputs": [],
      "name": "ubeswapClone",
      "outputs": [
        {
          "internalType": "contract UbeswapClone",
          "name": "",
          "type": "address"
        }
      ],
      "payable": false,
      "stateMutability": "view",
      "type": "function"
    },
    {
      "constant": false,
      "inputs": [
        {
          "internalType": "uint256",
          "name": "_amount",
          "type": "uint256"
        }
      ],
      "name": "stakeTokens",
      "outputs": [],
      "payable": false,
      "stateMutability": "nonpayable",
      "type": "function"
    },
    {
      "constant": false,
      "inputs": [],
      "name": "unstakeToken",
      "outputs": [],
      "payable": false,
      "stateMutability": "nonpayable",
      "type": "function"
    },
    {
      "constant": false,
      "inputs": [],
      "name": "issueToken",
      "outputs": [],
      "payable": false,
      "stateMutability": "nonpayable",
      "type": "function"
    }
  ],
  "bytecode": "0x60806040526040518060400160405280600481526020017f4672616d000000000000000000000000000000000000000000000000000000008152506000908051906020019061004f929190610164565b5034801561005c57600080fd5b50604051610fd5380380610fd58339818101604052604081101561007f57600080fd5b81019080805190602001909291908051906020019092919050505081600260006101000a81548173ffffffffffffffffffffffffffffffffffffffff021916908373ffffffffffffffffffffffffffffffffffffffff16021790555080600360006101000a81548173ffffffffffffffffffffffffffffffffffffffff021916908373ffffffffffffffffffffffffffffffffffffffff16021790555033600160006101000a81548173ffffffffffffffffffffffffffffffffffffffff021916908373ffffffffffffffffffffffffffffffffffffffff1602179055505050610209565b828054600181600116156101000203166002900490600052602060002090601f016020900481019282601f106101a557805160ff19168380011785556101d3565b828001600101855582156101d3579182015b828111156101d25782518255916020019190600101906101b7565b5b5090506101e091906101e4565b5090565b61020691905b808211156102025760008160009055506001016101ea565b5090565b90565b610dbd806102186000396000f3fe608060405234801561001057600080fd5b50600436106100a95760003560e01c80636f49712b116100715780636f49712b146102275780637547c7a3146102835780638da5cb5b146102b1578063a1ee8c78146102fb578063c93c8f3414610305578063fd5e6dd114610361576100a9565b806306fdde03146100ae5780630ea86ad81461013157806320eb640c1461017b57806345bc78ab14610185578063475b5912146101dd575b600080fd5b6100b66103cf565b6040518080602001828103825283818151815260200191508051906020019080838360005b838110156100f65780820151818401526020810190506100db565b50505050905090810190601f1680156101235780820380516001836020036101000a031916815260200191505b509250505060405180910390f35b61013961046d565b604051808273ffffffffffffffffffffffffffffffffffffffff1673ffffffffffffffffffffffffffffffffffffffff16815260200191505060405180910390f35b610183610493565b005b6101c76004803603602081101561019b57600080fd5b81019080803573ffffffffffffffffffffffffffffffffffffffff1690602001909291905050506106d2565b6040518082815260200191505060405180910390f35b6101e56106ea565b604051808273ffffffffffffffffffffffffffffffffffffffff1673ffffffffffffffffffffffffffffffffffffffff16815260200191505060405180910390f35b6102696004803603602081101561023d57600080fd5b81019080803573ffffffffffffffffffffffffffffffffffffffff169060200190929190505050610710565b604051808215151515815260200191505060405180910390f35b6102af6004803603602081101561029957600080fd5b8101908080359060200190929190505050610730565b005b6102b9610aaf565b604051808273ffffffffffffffffffffffffffffffffffffffff1673ffffffffffffffffffffffffffffffffffffffff16815260200191505060405180910390f35b610303610ad5565b005b6103476004803603602081101561031b57600080fd5b81019080803573ffffffffffffffffffffffffffffffffffffffff169060200190929190505050610d2c565b604051808215151515815260200191505060405180910390f35b61038d6004803603602081101561037757600080fd5b8101908080359060200190929190505050610d4c565b604051808273ffffffffffffffffffffffffffffffffffffffff1673ffffffffffffffffffffffffffffffffffffffff16815260200191505060405180910390f35b60008054600181600116156101000203166002900480601f0160208091040260200160405190810160405280929190818152602001828054600181600116156101000203166002900480156104655780601f1061043a57610100808354040283529160200191610465565b820191906000526020600020905b81548152906001019060200180831161044857829003601f168201915b505050505081565b600360009054906101000a900473ffffffffffffffffffffffffffffffffffffffff1681565b6000600560003373ffffffffffffffffffffffffffffffffffffffff1673ffffffffffffffffffffffffffffffffffffffff1681526020019081526020016000205490506000811161054d576040517f08c379a000000000000000000000000000000000000000000000000000000000815260040180806020018281038252601b8152602001807f7374616b696e672062616c616e63652063616e6e6f742062652030000000000081525060200191505060405180910390fd5b600360009054906101000a900473ffffffffffffffffffffffffffffffffffffffff1673ffffffffffffffffffffffffffffffffffffffff1663a9059cbb33836040518363ffffffff1660e01b8152600401808373ffffffffffffffffffffffffffffffffffffffff1673ffffffffffffffffffffffffffffffffffffffff16815260200182815260200192505050602060405180830381600087803b1580156105f657600080fd5b505af115801561060a573d6000803e3d6000fd5b505050506040513d602081101561062057600080fd5b8101908080519060200190929190505050506000600560003373ffffffffffffffffffffffffffffffffffffffff1673ffffffffffffffffffffffffffffffffffffffff168152602001908152602001600020819055506000600760003373ffffffffffffffffffffffffffffffffffffffff1673ffffffffffffffffffffffffffffffffffffffff16815260200190815260200160002060006101000a81548160ff02191690831515021790555050565b60056020528060005260406000206000915090505481565b600260009054906101000a900473ffffffffffffffffffffffffffffffffffffffff1681565b60076020528060005260406000206000915054906101000a900460ff1681565b600081116107a6576040517f08c379a00000000000000000000000000000000000000000000000000000000081526004018080602001828103825260128152602001807f616d6f756e742063616e6e6f742062652030000000000000000000000000000081525060200191505060405180910390fd5b600360009054906101000a900473ffffffffffffffffffffffffffffffffffffffff1673ffffffffffffffffffffffffffffffffffffffff166323b872dd3330846040518463ffffffff1660e01b8152600401808473ffffffffffffffffffffffffffffffffffffffff1673ffffffffffffffffffffffffffffffffffffffff1681526020018373ffffffffffffffffffffffffffffffffffffffff1673ffffffffffffffffffffffffffffffffffffffff1681526020018281526020019350505050602060405180830381600087803b15801561088357600080fd5b505af1158015610897573d6000803e3d6000fd5b505050506040513d60208110156108ad57600080fd5b81019080805190602001909291905050505080600560003373ffffffffffffffffffffffffffffffffffffffff1673ffffffffffffffffffffffffffffffffffffffff1681526020019081526020016000205401600560003373ffffffffffffffffffffffffffffffffffffffff1673ffffffffffffffffffffffffffffffffffffffff16815260200190815260200160002081905550600660003373ffffffffffffffffffffffffffffffffffffffff1673ffffffffffffffffffffffffffffffffffffffff16815260200190815260200160002060009054906101000a900460ff166109fc5760043390806001815401808255809150509060018203906000526020600020016000909192909190916101000a81548173ffffffffffffffffffffffffffffffffffffffff021916908373ffffffffffffffffffffffffffffffffffffffff160217905550505b6001600760003373ffffffffffffffffffffffffffffffffffffffff1673ffffffffffffffffffffffffffffffffffffffff16815260200190815260200160002060006101000a81548160ff0219169083151502179055506001600660003373ffffffffffffffffffffffffffffffffffffffff1673ffffffffffffffffffffffffffffffffffffffff16815260200190815260200160002060006101000a81548160ff02191690831515021790555050565b600160009054906101000a900473ffffffffffffffffffffffffffffffffffffffff1681565b600160009054906101000a900473ffffffffffffffffffffffffffffffffffffffff1673ffffffffffffffffffffffffffffffffffffffff163373ffffffffffffffffffffffffffffffffffffffff1614610b98576040517f08c379a000000000000000000000000000000000000000000000000000000000815260040180806020018281038252601c8152602001807f63616c6c6572206d7573742062652074686520746865206f776e65720000000081525060200191505060405180910390fd5b60008090505b600480549050811015610d2957600060048281548110610bba57fe5b9060005260206000200160009054906101000a900473ffffffffffffffffffffffffffffffffffffffff1690506000600560008373ffffffffffffffffffffffffffffffffffffffff1673ffffffffffffffffffffffffffffffffffffffff1681526020019081526020016000205490506000811115610d1a57600260009054906101000a900473ffffffffffffffffffffffffffffffffffffffff1673ffffffffffffffffffffffffffffffffffffffff1663a9059cbb83836040518363ffffffff1660e01b8152600401808373ffffffffffffffffffffffffffffffffffffffff1673ffffffffffffffffffffffffffffffffffffffff16815260200182815260200192505050602060405180830381600087803b158015610cdd57600080fd5b505af1158015610cf1573d6000803e3d6000fd5b505050506040513d6020811015610d0757600080fd5b8101908080519060200190929190505050505b50508080600101915050610b9e565b50565b60066020528060005260406000206000915054906101000a900460ff1681565b60048181548110610d5957fe5b906000526020600020016000915054906101000a900473ffffffffffffffffffffffffffffffffffffffff168156fea265627a7a723158206618a89e5338ae99cf2d20a1d39d15438d28a25588d2067b480b2fb28b3ee7f364736f6c634300050e0032",
  "source": "pragma solidity >=0.4.21 < 0.9.0;\r\n\r\n\r\nimport \"./CeloDollar.sol\";\r\nimport \"./UbeswapClone.sol\";\r\n\r\ncontract YieldFrams{\r\n    string public name=\"Fram\";\r\n    address public owner;\r\n    UbeswapClone public ubeswapClone;\r\n    CeloDollar public cUSDToken;\r\n\r\n    address[] public stakers;\r\n    mapping(address=> uint) public stakingBalance;\r\n    mapping(address=>bool)public hasStaked;\r\n    mapping(address=>bool)public isStaking;\r\n\r\n    constructor(UbeswapClone _ubeswapClone, CeloDollar _cUSDToken)public{\r\n        ubeswapClone=_ubeswapClone;\r\n        cUSDToken=_cUSDToken;\r\n        owner=msg.sender;\r\n\r\n    }\r\n    \r\n    //staking tokens cUSD\r\n    function stakeTokens(uint _amount)public{\r\n\r\n        //require amount greater than 0\r\n        require(_amount >0,\"amount cannot be 0\");\r\n        //transfer cusd to this contract for staking\r\n        cUSDToken.transferFrom(msg.sender,address(this),_amount);\r\n        //updating staking balance\r\n        stakingBalance[msg.sender]=stakingBalance[msg.sender]+_amount;\r\n\r\n        //Add user to stakers array only if they haven't stake already\r\n\r\n        if(!hasStaked[msg.sender]){\r\n            stakers.push(msg.sender);\r\n        }\r\n        //update staking status\r\n        isStaking [msg.sender]=true;\r\n        hasStaked[msg.sender]=true;\r\n    }\r\n    \r\n    // ustaking tokens cUSD (withdraw)\r\n    function unstakeToken()public{\r\n        //fetch staking balance\r\n        uint balance=stakingBalance[msg.sender];\r\n        //require amount  greater than 0\r\n        require(balance >0 ,\"staking balance cannot be 0\");\r\n        //transfer cUSD tokens to this contract for staking\r\n        cUSDToken.transfer(msg.sender,balance);\r\n        //Reset staking balance\r\n        stakingBalance[msg.sender]=0;\r\n        //update staking status\r\n        isStaking[msg.sender]=false;\r\n    }\r\n\r\n    //issuing tokens (ubswap)\r\n    function issueToken()public{\r\n        //only owner can call this function\r\n        require(msg.sender == owner,\"caller must be the the owner\");\r\n        //Issue tokens to all stakers\r\n        for (uint i=0;i<stakers.length;i++){\r\n            address recipient =stakers[i];\r\n            uint balance=stakingBalance[recipient];\r\n            if(balance >0){\r\n                ubeswapClone.transfer(recipient, balance);\r\n            }\r\n        }\r\n    }\r\n\r\n}",
  "sourcePath": "C:\\Users\\Administrator\\Desktop\\Ubeswap_Clone_Starter_Code\\src\\contracts\\YieldFarm.sol",
  "compiler": {
    "name": "solc",
    "version": "0.5.14+commit.01f1aaa4.Emscripten.clang"
  },
  "schemaVersion": "3.4.3",
  "updatedAt": "2021-11-24T21:40:10.400Z",
  "devdoc": {
    "methods": {}
  },
  "userdoc": {
    "methods": {}
  }
}